:020000040800F2
:100000007006002069290008852900088929000850
:100010008D2900089129000895290008000000009A
:100020000000000000000000000000009929000806
:100030009D29000800000000A1290008A52900084A
:10004000A9290008AD290008B1290008B529000830
:10005000B9290008BD290008C1290008C5290008E0
:10006000C9290008CD290008D1290008D529000890
:10007000D9290008DD290008E1290008E529000840
:10008000E9290008ED290008F12900080000000016
:10009000000000000000000000000000F52900083A
:1000A000F9290008E1280008FD290008012A0008B4
:1000B000052A0008E9280008092A00080D2A000876
:1000C000112A0008152A0008192A00081D2A00080C
:1000D000212A0008F9100008252A0008292A00080A
:1000E0002D2A0008312A0008352A000800000000E7
:1000F0000000000000000000000000000000000000
:1001000000000000000000000000000000000000EF
:100110000000000000000000392A00083D2A000805
:1001200080B501211D2000F09AFA0121CB4800F092
:100130005AFB0121012000F056FB03208DF802003C
:1001400010208DF803004FF48070ADF8000000A976
:10015000C34800F0DBFA18208DF803004FF400705C
:10016000ADF8000000A9BE4800F0D0FA04208DF8D8
:1001700003004FF48060ADF8000000A9B84800F01B
:10018000C5FA10208DF803000820ADF8000000A982
:10019000B34800F0BBFA4FF40040ADF8000000A9EE
:1001A000B04800F0B3FA14208DF803004FF440700B
:1001B000ADF8000000A9AC4800F0A8FA00208DF8C6
:1001C00003003020ADF8000000A9A54800F09EFA19
:1001D00000208DF803000320ADF8000000A9A2481C
:1001E00000F094FA18208DF803002820ADF80000E4
:1001F00000A99D4800F08AFA10208DF803004FF402
:100200008050ADF8000000A9974800F07FFA142054
:100210008DF803004FF40040ADF8000000A99048AD
:1002200000F074FAD020ADF8000000A98E4800F06C
:100230006DFA01BDE0B501214FF4006000F00FFA46
:100240001720ADF800000020ADF8020040F6FF7066
:10025000ADF804000020ADF8060000208DF808007D
:1002600000A9824800F002FB0021804800F098FBC2
:100270007F480021018007BD00B587B00121012022
:1002800000F0FDF943F69820ADF804003B20ADF8EE
:1002900000000020ADF806000020ADF8020000A923
:1002A0005FF0804000F0E2FA3020ADF80C00012051
:1002B000ADF80E0041F64C50ADF812000020ADF83C
:1002C000140003A95FF0804000F00EFB01215FF0F5
:1002D000804000F065FB6748002101800022012179
:1002E0005FF0804000F06AFB07B000BDE0B501217F
:1002F000022000F0C4F90520ADF800000020ADF8A0
:10030000020040F2DC50ADF804000020ADF8060019
:1003100000208DF8080000A9574800F0A7FA012135
:10032000554800F03DFB5548002101800122012184
:10033000514800F043FB07BD00B585B001214FF4E3
:10034000805000F08CF94E4800F048FB4FF44040DC
:10035000ADF800004FF40060ADF804000020ADF8E7
:1003600006000020ADF808004FF40070ADF80A0058
:100370003820ADF80C000020ADF80E000720ADF8D5
:1003800010004FF48270ADF8020000A93C4800F064
:1003900050FB01213A4800F073FB05B000BD00B5E9
:1003A00085B001214FF4007000F059F9002000F0F1
:1003B000DBF801208DF8040000208DF805000020F6
:1003C000039002208DF8100000A92E4800F068FB71
:1003D00002212C4800F033FC052301220821294882
:1003E00000F0EBFB052302220921264800F0E5FB83
:1003F00000221421234800F031FC0022182121485A
:1004000000F02CFC4FF440511E4800F0B4FB0021DA
:100410001C4800F0B8FB01211A4800F0C1FB002184
:10042000184800F08EFB0021164800F097FB0121D0
:10043000144800F05BFB134800F065FB114800F026
:1004400067FB0028FAD10F4800F06CFB0D4800F064
:100450006EFB0028FAD105B000BD0000000230009C
:100460000008014000100140000C0140002C014038
:10047000102C014010000040000400401004004017
:10048000003001400024014000B585B001215FF03B
:10049000005000F0F4F800200090002001904FF48C
:1004A000007002900220039000A9002000F0F6FBEB
:1004B00000A9102000F0F2FB0121002000F007FC51
:1004C0000121102000F003FC05B000BD80B5002123
:1004D0005FF0006000F068FC4FF4A06000F02CFCBE
:1004E00019208DF8000002208DF8010000208DF801
:1004F000020001208DF8030000A800F022FC1D205E
:100500008DF8000001208DF8010000208DF8020018
:1005100001208DF8030000A800F013FC25208DF8C1
:10052000000001208DF8010001208DF8020001205B
:100530008DF8030000A800F004FC01BD80B5FFF7B2
:10054000EFFDFFF777FEFFF797FEFFF7CFFE00F016
:1005500044FD00F03DFCFFF7EFFEFFF720FFFFF743
:1005600093FFFFF7B3FF01BD00215D4A1268110040
:1005700031F4404101435A480160704770B4002291
:100580000021002300240025554E366816F00C0685
:100590003200002A04D0042A05D0082A06D021E01F
:1005A0005149016020E0504901601DE04C49096853
:1005B00011F470114A4A126812F48033890C891CB4
:1005C000002B03D1494A514301600AE0454A1268B1
:1005D00012F00F02551C444AB2FBF5F201FB02F186
:1005E000016001E0404901603D49096811F0F002F5
:1005F00012093F49545C0168E1404160384909688B
:1006000011F4E062120A3A49545C4168E1408160A9
:100610003349096811F46052D20A3549545C416883
:10062000E140C1602E49096811F44042920B314902
:10063000545CC168B1FBF4F1016170BC7047C9B290
:10064000002905D02C49096808432B49086005E0BA
:100650002949096831EA0000274908607047C9B292
:10066000002905D02549096808432449086005E0A8
:100670002249096831EA0000204908607047C9B280
:10068000002905D01E49096808431D49086005E096
:100690001B49096831EA0000194908607047C9B26E
:1006A000002905D01749096808431649086005E084
:1006B0001449096831EA0000124908607047C9B25C
:1006C000002905D01049096808430F49086005E072
:1006D0000D49096831EA00000B49086070470000C5
:1006E000041002402C10024000127A0000093D0064
:1006F00000000020100000201410024018100240DA
:100700001C1002400C10024010100240F0B40022F5
:100710000026002400250023002791F803C01CF0C8
:100720000F0C624691F803C05FEACC6C01D58B7860
:100730001A430B781B0621D00368002406E0CD780D
:10074000482D02D10125A5400561641C082C14D256
:100750000125A5400E882E40AE42F6D1A5000F26F9
:1007600016FA05F7BB4312FA05F52B43CD78282D71
:10077000E5D10125A5404561E7E703600B88FF2B24
:1007800026DD4368002420E0012514F10806B54069
:100790000E882E40AE4217D1A5000F2616FA05F797
:1007A000BB4312FA05F52B43CD78282D04D1012542
:1007B00014F10806B5404561CD78482D04D10125D6
:1007C00014F10806B5400561641C082CDCD34360B5
:1007D000F0BC7047D2B2002A02D089B2016101E0B8
:1007E00089B24161704770B40022002400230025C3
:1007F000002802D51B4A136801E01B4A1368C0F3A6
:10080000034582B210F44014B4F5401F08D133F010
:100810007063154C246834F07064134D2C600FE045
:10082000C40205D50324AC40A34353F0706307E032
:10083000440DE4B2240112FA04F4A34353F07063AC
:10084000C9B2002905D0410DC9B2090112FA01F15E
:100850000B43002802D50348036001E0024803600F
:1008600070BC70471C000140040001400022038856
:100870001A00414B98420ED0454B98420BD0B0F134
:10088000804F08D03D4B984205D03D4B984202D056
:100890003C4B984204D14FF68F731A404B881A4351
:1008A000394B984207D0394B984204D04FF6FF435A
:1008B0001A40CB881A4302808A8882850A8802857A
:1008C0002D4A90420BD0324A904208D0314A904291
:1008D00005D0314A904202D0304A904201D1097A83
:1008E000018601218182704770B400230024002218
:1008F000058C4FF6FE7635400584058C2C008588E6
:100900002A00058B2B004FF68F752B404FF6FC7598
:100910002B400D882B434FF6FD752C400D892C4341
:100920004D882C43144DA8420BD0194DA84208D035
:10093000184DA84205D0184DA84202D0174DA84224
:1009400013D14FF6F7752C404D892C434FF6FB75AC
:100950002C408D882C434FF6FF652A404FF6FF55FB
:100960002A408D892A43CD892A4382800383C988FE
:100970008186048470BC7047002C01400004004054
:1009800000080040000C004000100040001400402F
:100990000034014000400140004401400048014053
:1009A000C9B2002904D0018851F00101018004E09E
:1009B00001884FF6FE72114001807047D2B2002AC2
:1009C00003D082891143818103E0828932EA0101E7
:1009D0008181704789B2C9430182704780B525493A
:1009E00088420AD101214FF48050FFF758FE0021C0
:1009F0004FF48050FFF753FE1AE01F4988420AD196
:100A000001214FF48040FFF75AFE00214FF480404F
:100A1000FFF755FE0CE01949884209D101214FF436
:100A20000040FFF74CFE00214FF40040FFF747FE67
:100A300001BD10B4002203881A0012F441520B8841
:100A40004C8823438C882343CC8823430C8923433D
:100A50004C8923438C892343CC8923431A43028046
:100A6000828B4FF2FF731A408283098A018210BC85
:100A7000704700000030014000380040003C00405A
:100A8000C9B2002904D0018851F04001018004E07E
:100A900001884FF6BF721140018070478181704715
:100AA00030B40023002244682300DFF8E8412340EB
:100AB0000C680D7954EA0524234343608368DFF80A
:100AC000D8412340CC688D682C434D7954EA4504C5
:100AD00023438360C36A33F47003097C491E0A43CD
:100AE000D2B253EA0253C36230BC7047C9B2002984
:100AF00004D0816851F00101816003E081684908F8
:100B0000490081607047816851F008018160704739
:100B100000218068000701D5012100E000210800C4
:100B2000C0B27047816851F00401816070470021B4
:100B30008068400701D5012100E000210800C0B213
:100B40007047C9B2002904D0416851F48061416006
:100B500003E0416831F4806141607047C9B2002907
:100B600004D0416851F48051416003E0416831F4A0
:100B7000805141607047002283681A0032F4E042DD
:100B80000A4382607047C9B2002904D0816851F4D9
:100B90000041816003E0816831F400418160704769
:100BA000C9B2002904D0816851F40211816003E0C8
:100BB000816831F4021181607047F0B4002400258F
:100BC0000026C9B20A2911DBC4680725B1F10A065B
:100BD00003277E43B540AC43DBB2B1F10A050326DF
:100BE000754313FA05F52C43C4600EE0046907252C
:100BF000032606FB01F6B540AC43DBB2032505FB3B
:100C000001F513FA05F52C430461846BC4F3015616
:100C10001F23D2B2D51CAD1B6D1E05277D4313FAD1
:100C200005F5AC43C9B2D2B2D21C921B521E0523A9
:100C30005A4311FA02F52C438463F0BC704710B498
:100C400000220023846B220032F44012C9B2491EF4
:100C50000B0052EA0352826310BC704781B000233C
:100C6000009300900098C9B208180090009892B2C2
:100C7000026001B0704781B000220092009000989D
:100C8000C9B22831081800900098006880B201B0FD
:100C900070470000FFFEF0FFFDF7F1FF30B40023C6
:100CA0000022244C2468230040F6FE748440A343B1
:100CB0000C684D682C438D682C43C96821430A0099
:100CC00012FA00F003431B48036030BC7047C9B2FE
:100CD000002908D017490968012212FA00F00843D8
:100CE0001449086008E013490968012212FA00F06B
:100CF00031EA00000F490860704781B0002200927D
:100D00000C4A0092009A083080180090009889B22E
:100D1000016001B0704781B000220092054A009244
:100D2000009A143080180090009889B2016001B0D8
:100D300070470000007400401E4908431E490860C7
:100D4000704710B4002100220F23C478002C1ED05D
:100D50001949096811F4E061D1F5E061090AD1F19E
:100D60000402CB404178914082781A401143090136
:100D70000278124BD15401784911114A01230078AD
:100D800010F01F0013FA00F042F821000AE0017889
:100D900049110C4A0123007810F01F0013FA00F0EB
:100DA00042F8210010BC7047074A11400843074928
:100DB000086070470000FA050CED00E000E400E078
:100DC00000E100E080E100E080FFFF1F08ED00E0AF
:100DD00000B585B000224FF48071DFF8E403FFF71F
:100DE000F9FCDFF8E003DFF8E0130978A0F802115E
:100DF000DFF8D0030021A0F80011DFF8C8030021BC
:100E0000A0F80411DFF8BC03C821A0F80C11DFF82A
:100E1000B403012180F8191101214FF48040FFF73C
:100E20001EFCDFF8A4034078DFF8A01351F820007F
:100E30000090DFF894034078DFF8941308700020E6
:100E4000ADF804000020ADF806000020ADF8080061
:100E50000020ADF80C000C20ADF80A0000A9DFF866
:100E6000740300F0D7F9DFF87003008850F0040035
:100E7000DFF864130880DFF86003008850F0080092
:100E8000DFF854130880DFF85003008850F4005056
:100E9000DFF844130880DFF8440300210170DFF815
:100EA00040030021017000F0F8F805B000BD00B566
:100EB00085B0DFF81C030078DFF80C13497888420E
:100EC0001CD0C1484078C14951F820000090BE486C
:100ED0004078BF4908700020ADF804000020ADF84C
:100EE00006000020ADF808000020ADF80C000C2032
:100EF000ADF80A0000A9B74800F08CF9B148B0F885
:100F00000201B149097889B2884204D0AD48AE499E
:100F10000978A0F8021105B000BD10B50400012247
:100F20004FF48071A648FFF755FC0021AD48FFF74C
:100F300037FDAD4800210180AC4804800121A9485B
:100F4000FFF72EFD01220121A648FFF737FD10BD56
:100F500080B5A74800210180A24800884FF6FE71A5
:100F60000840A049088000F067F801BD80B5012263
:100F70004FF480719248FFF72DFC00F05DF8974820
:100F80000121017001BD80B594480078002801D08E
:100F9000002021E09248007800281CD090480021D1
:100FA000017088489349C0F81411864800F079FA16
:100FB00000280ED08348B0F80401002807D08148EB
:100FC000B0F80C01FFF7A9FF84480121017001204E
:100FD00002E000F062F8002002BD00B58BB00121F4
:100FE0000120FFF72CFB844800F0ECFA834800F066
:100FF000E9FA834800907348019010200290002085
:10100000039000200490802005900020069000208E
:101010000790002008904FF44050099000200A905B
:1010200000A9754800F052FB0020029000A9734807
:1010300000F04CFB0BB000BD6F480068400840005A
:101040006D4908605F48B0F804016E490860614866
:1010500000884FF6BF7108405E4908806A480088E2
:1010600050F08000684908806848006850F470407B
:10107000664908605848008850F0080056490880C2
:101080005D48006850F001005B49086052480088E4
:1010900050F0400050490880704780B500224FF45E
:1010A00080714748FFF796FB5448006840084000AD
:1010B000524908605648FF2101605348008850F0AB
:1010C0004000514908805148006850F470204F4951
:1010D00008604A48006850F00100484908603E48EE
:1010E000008850F010003C4908803B48008850F0D0
:1010F00004003949088001BD80B53648008880B2B7
:10110000410624D534490988490620D5314800884C
:101110004FF6BF7108402F4908802F4800884FF6CE
:10112000BF7108402C490880374800884FF67F710E
:1011300008403549088030480068400840002E4982
:101140000860FFF7AAFF25480021017036E0224918
:10115000098889B211F0100108422FD02848008870
:1011600080B21C49098889B208001B4909884FF6DA
:10117000FB721140184A1180174909884FF6EF7227
:101180001140154A1180204909884FF6BF7211405D
:101190001D4A11801949096849084900174A116018
:1011A0001B490968D1F1FF01C9B2064AA2F8001132
:1011B0000B4901220A70094900220A7001BD000092
:1011C00000080140140000200038000840290008F1
:1011D0006A020020003801400C38014069020020FA
:1011E00068020020002C0140242C01402C2C0140DE
:1011F000102C01406D0F00084400024058000240CE
:101200000438014048000240143801400400024004
:101210005C000240F0B585B004000D000020002104
:10122000002200230026AF89002F2600208A4CF6DA
:10123000FF710840E98808432082A0894EF6F31127
:101240000840A9882A8911436A8911430843A0816B
:10125000A08A4FF6FF410840A9890843A08200A850
:10126000FFF78CF91B48864201D1039900E00299EF
:10127000A089000407D5192000FB01F02968490066
:10128000B0FBF1F206E0192000FB01F029688900AB
:10129000B0FBF1F26420B2FBF0F00001010964231D
:1012A00003FB1123A189090408D5D9003231642236
:1012B000B1FBF2F111F00701084307E019013231E7
:1012C0006422B1FBF2F111F00F010843208105B057
:1012D000F0BD00000038014010B582B00400B4F841
:1012E0000411200000F02EFAADF80000B4F804015B
:1012F000411CA4F8041180B29DF801100155B4F806
:101300000401411CA4F8041180B29DF8001001559D
:1013100013BD00200100481CC9B2A54A895C002900
:10132000F8D1C0B2704738B504000025FFF7F1FFCF
:10133000A4F80401A070EDB22919EDB29C4AAA5C90
:10134000CA7029004D1CC9B2C0B28142F3D1B4F8B1
:101350000401801CA4F804012000FFF7BDFF31BD8B
:1013600080B5C1788DF8001081788DF80110BDF836
:101370000010FF2905DC01008E4800F031F8012043
:101380000CE0BDF80010B1F50051802905D2010034
:10139000894800F025F8012000E0002002BD80B55A
:1013A000C1788DF8001081788DF80110BDF800101B
:1013B000FF2905DC01007F4800F046F801200EE01F
:1013C000BDF80010B1F50051802907D201007A481C
:1013D00000F0A4F8FFF76BFD012000E0002002BD43
:1013E00010B582B002000800C1788DF80010817835
:1013F00011F00F018DF80110BDF800104900C9046B
:10140000C90C89184279D2B25300A0F80431837014
:10141000B0F80431DB1CA0F8043103230C88ADF8CC
:101420000040891CDBB29DF801401C545B1CDBB200
:101430009DF800401C545B1C521E1400E4B2002CAA
:10144000ECD1FFF749FF13BD10B582B002000800D0
:10145000C1788DF80010817811F00F018DF801101E
:10146000BDF800104900C904C90C89184279072346
:10147000DBB21C5C8DF801405B1CDBB21C5C8DF8A0
:1014800000405B1CBDF800400C80891C521E1400FB
:10149000E4B2002CECD10621A0F80411FFF71CFFE8
:1014A00013BD10B50400B4F80011200000F04AF993
:1014B000002827D12078B4F8021180B2884221D1C7
:1014C0006078C0B2032804D010280BD0112812D0A5
:1014D00016E02000FFF744FF002801D0012012E0B1
:1014E000002010E02000FFF75AFF002801D0012063
:1014F00009E0002007E02000FFF715FF012002E0CF
:10150000002000E0002010BD402204E003680B60D2
:10151000001D091D521E002AF8D1704710B582B077
:101520000C0026492448FFF7EFFF627904F2070117
:10153000E078224B13EB40000B788DF80130491C0A
:101540000B788DF80030491CBDF800300380801CFA
:10155000521E1300DBB2002BEED1FE21174800F023
:10156000F1F8164980B2020A81F8FE20134981F889
:10157000FF0072B61149124800F000F94FF4807173
:101580000F4800F0DFF8002804D10C490A4800F0A9
:10159000F5F803E00A49084800F0F0F862B60620C2
:1015A000A4F804012000FFF797FE13BD000000001F
:1015B00030280008300200200038000830010020E8
:1015C000003C0008016849084900016000210160F1
:1015D00000214160002181600021C1604B498842A7
:1015E00006D14B48006850F00F00494908606CE094
:1015F0004849884206D14648006850F0F000444906
:10160000086062E04449884206D14148006850F4CD
:1016100070603F49086058E04049884206D13C4824
:10162000006850F470403A4908604EE03C498842F6
:1016300006D13748006850F470203549086044E00E
:101640003849884206D13248006850F47000304969
:1016500008603AE03449884206D12D48006850F0CD
:1016600070602B49086030E03049884206D130482C
:10167000006850F00F002E49086026E02D4988428E
:1016800006D12B48006850F0F000294908601CE0A2
:101690002949884206D12648006850F470602449E0
:1016A000086012E02549884206D12148006850F4BC
:1016B00070401F49086008E02149884205D11C4854
:1016C000006850F470201A490860704710B4002276
:1016D00003681A006FF30E128B680C6A23430C69BF
:1016E00023434C6923438C692343CC6923434C6ACD
:1016F00023438C6A23431A430260CA6842600A6823
:1017000082604968C16010BC704700000800024058
:10171000040002401C00024030000240440002402D
:10172000580002406C000240800002400804024061
:10173000040402401C0402403004024044040240FD
:101740005804024010B4FF22FF2308E0D2B204780C
:101750005440401C074AA25C5A40074BE35C0C0013
:10176000611E002CF2D1D2B2DBB253EA022080B269
:1017700010BC7047302600083027000870B582B0D2
:1017800004000D00402600F015F8352000F095F813
:10179000200000F01AF88DF8000008E02968200009
:1017A00000F045F88DF80000241D2D1D761E002E3A
:1017B000F4D173BDDFF83401DFF834110160DFF8D4
:1017C0002C01DFF830110160704738B504000425A2
:1017D0005FF4302000F096F80500EDB2042D23D11F
:1017E000DFF81401006850F00200DFF80C11086007
:1017F000DFF808010460DFF80001006850F04000E5
:10180000DFF8F41008605FF4302000F07BF805008A
:10181000EDB2052D08D0DFF8E000006841F6FD715B
:101820000840DFF8D41008602800C0B232BD70B59F
:1018300082B005000C000426002000904FF40050F8
:1018400000F060F80600F6B2042E33D1DFF8A800ED
:10185000006850F00100DFF8A01008602C804FF401
:10186000005000F04FF80600F6B2042E16D1A81C66
:101870000090200C009908804FF4005000F042F8CE
:101880000600F6B2052E15D0DFF86C00006841F6B0
:10189000FE710840DFF8601008600BE0F6B2052E1C
:1018A00008D0DFF85400006841F6FE710840DFF808
:1018B000481008603000C0B276BD1149086070471A
:1018C00004200F490968C90701D501200CE00C4824
:1018D0000068400701D5022006E009480068C006FC
:1018E00001D5032000E00420C0B27047042002406C
:1018F00023016745AB89EFCD102002401420024040
:101900000C20024038B504000425FFF7D9FF05007C
:1019100003E0FFF7D5FF0500641EEDB2012D01D1F4
:10192000002CF6D1002C00D105252800C0B232BD14
:10193000F0B540F2FF7581EA030C0CF0004C15EA9B
:1019400011541DBF15EA1357AC42AF42E5E0BC414C
:10195000C1F31301C3F31303801A994143F48013B5
:1019600004D2641E4000494180185941C90241EA2D
:101970005051B1FBF3F603FB1611A2FB0675D7EB32
:10198000C020A94102D2761E80185941C90241EAFD
:101990005051B1FBF3FE03FB1E11A2FB0E75D7EBFA
:1019A000C020A94103D2AEF1010E8018594189022D
:1019B00041EA9051760546EA8E2EB1FBF3F603FB21
:1019C0001611A2FB0675D7EB8020A94102D2761E24
:1019D00080185941C90241EA50514EEA060EB1FB46
:1019E000F3F603FB1611A2FB0675D7EBC020A94145
:1019F00002D2761E80185941C90241EA5051B1FB0A
:101A0000F3F703FB1711A2FB0735D3EBC020A94165
:101A100067F100070CBF004247F0010766F3D527C6
:101A20004FEA1E31B80814F5806412DDBD0775F168
:101A3000004250EB0E5051EB045111F5801F5CBF7A
:101A400041EA0C01F0BD4CF07F6141F0E041002023
:101A5000F0BDBD076D0840EA0E5041F48011D4F18D
:101A60000104B4F120060ADAC4F120060200E040C5
:101A700001FA06F3E1401843B24015430EE0342C5E
:101A800013DCC6F1200445EA40056D0820FA06F291
:101A9000154321FA06F0A1400D43002175F10042E3
:101AA00050F1000051EB0C01F0BD00205FEA0C0189
:101AB000F0BDCFB992185B41B3FA83F704BFB2FA15
:101AC00082F6BF190B3FB7F120062FBF02FA06F3CB
:101AD000BB40C7F1200622FA06F638BF3343BA40AE
:101AE0001CB1E419641E33E77F4231F00041B1FAC2
:101AF00081F404BFB0FA80F6A4190B3CB4F12006BF
:101B00002FBF00FA06F1A140C4F1200620FA06F624
:101B100038BF3143A0403C1B1AE7AC421ABF05EA6C
:101B20001357AF4212E050EA41061CBF52EA430687
:101B3000BFE750EA4107304661461CBF41EA055104
:101B4000F0BD52EA430C08BFC143F0BD00204FF482
:101B5000001616EB410F98BF16EB430F08BF16EBAC
:101B6000410F24BFC14305E016EB430F0CBF614694
:101B70004CEA0551F0BD10B450F8041B81B1026865
:101B80001218001D50F8043BDC0744BFA9F1010402
:101B9000E31852F8044B43F8044B091FF9D1EBE763
:101BA00010BC704780B50100C9B26848FFF763F800
:101BB00002BD10B50024C0B2002805D089B20800CB
:101BC00000F0E4F804002EE092B2100000F0DEF81D
:101BD0000400200000F0FAF800225D4B00F01EF92E
:101BE00000225C4BFFF7A4FE00F0EAF980B200F09F
:101BF000CDF80400200000F009FA0A21B0FBF1F250
:101C000001FB1200052805D22000534900F010FA0C
:101C1000040008E02000504900F00AFA5FF07E510D
:101C200000F084FA0400200000F0C2FA80B210BD77
:101C300080B5FFF7A8F9002810D048480068C00513
:101C400004D54FF480704649086003E04FF480707B
:101C50004449086044480021016011E0424800689E
:101C6000401C41490860404800684CF251318842AC
:101C700006DB3D48002101603A484FF48071016065
:101C800001BD80B5FEF75AFC36484FF40071016083
:101C900034484FF4807101601BE04FF40040334939
:101CA0000860334841883348008900F0A3FA31497D
:101CB00008822F4881882F48408900F09BFA2D49DF
:101CC000488200F0B7FA2B4841892A48008900F081
:101CD000BFFA23484FF400710160FFF7A9FF1420F9
:101CE000FFF760FF020092B2224881892248006813
:101CF000C0F3C03010F00100FFF75BFF1D49088101
:101D00001D480068000403D508201C49086002E053
:101D100008201B4908601820FFF744FF020092B218
:101D20001448C18917480068C0F3001010F0010082
:101D3000FFF73FFF0F49488112480068C006ACD545
:101D40004FF4004010490860ABE700000024014058
:101D50000088D34000FEAF40000020410C0C014041
:101D6000140C0140100C01406402002010100140CE
:101D70000038000830020020080801401408014023
:101D800010080140080C014014100140002800BF59
:101D90000AD0B0FA80F18840D1F19D01C905020650
:101DA00072F1004241EB1020704750F8041B61B102
:101DB00050F8042BD30744BFA9F101039A1800235C
:101DC00042F8043B091FFAD1EFE770475FF0FF0CC0
:101DD0001CEAD05114BF614506E0C110400721F054
:101DE000E04101F16051704779B900F00041000213
:101DF0000AD0B0FA80FC00FA0CF001F16051A1EBBE
:101E00000C5101EBD0214005704741020CBF40F45A
:101E1000E0016FF00001002070470000B0B581EADA
:101E2000030C0CF0004C40F2FF7515EA11541DBF75
:101E300015EA1357AC42AF4239E0E41923EA45539F
:101E400043F48013C90241F0004141EA505EC702E9
:101E50001100A7FB020200284FF00000EEFB01205A
:101E60004FF00001E3FB072118BF42F001024018C8
:101E700000214941E3FB0E01A4F580640F0302D267
:101E800052004041494154F101046CDD470872F1B0
:101E9000004250F1000051EB0451A1F580115CBFEC
:101EA00041EA0C01B0BD4CEA05510020B0BD05EA85
:101EB0001357AC4214BFAF4241E050EA410E1CBF81
:101EC00052EA430E02E061460020B0BD24423C4489
:101ED0001BD15FEA070EF6D0090302BF01460020BE
:101EE000AEF1140EB1FA81F7AEEB070401FA07FE6A
:101EF0000C37C7F1200100FA07F7C8404EEA000E80
:101F000023EA455343F48013A2E733F00043B3FAC6
:101F100083F704BFB2FA82FE77440B3FE41BB7F1AC
:101F2000200E2FBF02FA0EF3BB40C7F1200E22FA9B
:101F30000EFE38BF43EA0E03BA40641C82E750EA43
:101F4000410E14BF52EA430E6FF000014FF4001728
:101F500017EB430F8ABF194617EB410FB5E74CEA61
:101F600005510020B0BDD4F10104B4F120070FDA0F
:101F7000C4F12007520828BF42F0010210FA07F509
:101F800001FA07F7E1BF2A43E0403843E1400FE0A0
:101F9000352C98DCC7F1200452EA400220FA07F2FF
:101FA00018BF42F0010231FA07F0A1400A430021B4
:101FB00072F1004250F1000051EB0C01B0BD000085
:101FC000F446400D40EAC120490006D200F00EF868
:101FD000004248BF6FF00040604700F007F84FF044
:101FE000004188428CBF08464042604740F00040B4
:101FF000490DA1F58061491C05D4D1F11F0154BFE1
:10200000C840C01770474FF00000704740000DD225
:10201000010E7F390AD4D1F11F0104D4C00140F070
:102020000040C84070477FF00000704700207047B4
:1020300010B5FF2313EAD0541DBF13EAD1529C42BE
:102040009A4239E0A41ADA0780EA0103134042EA0F
:10205000012142EA0020421A3CBF641E01EB420209
:10206000090AB2FBF1FE01FB1E221202B2FBF1F0E3
:1020700001FB10226EF30F201202B2FBF1FE4EEABA
:1020800000207F3406DDFE2C24DA53EA500050EBAA
:10209000C45010BDD4F1020401FB1E2240F0807137
:1020A000192C1DDC21FA04F0C4F12004A1401143D5
:1020B00071F10042584110BD9C421ABF03EAD1524F
:1020C0009A420FE080EA010E0EF00043400004D077
:1020D000490016D143F0FF4010BD490008BFD3436B
:1020E000180010BD9C4205D1D21AF7D001F0004172
:1020F000484010BD4A0212BF0846484000F0004068
:1021000010BD4AB90902B1FA81F2914044B1A41854
:10211000C00140F000409EE7C90141F00041524239
:102120000002B0FA80F4A040141B94E790EA010F7B
:1021300044BF81F0004100F00DB900BF421A3CBF1E
:10214000801A89184FF0004CC0F3C752FF2A24D0E0
:10215000C1F3C75313B3D21AD2F1190327DD4CEAE6
:1021600001214CFA03F321EA0303D140C20D4CEAEA
:102170000020401834BF20EA0C004CEA5000D20581
:1021800053EA006373EB0C0C52EB1020420012F187
:10219000807F38BF7047C00DC0057047490212BF2D
:1021A0009A4200EB5120F8E7D2F11703D9D57047D6
:1021B0004100090E7F3915D4D1F11F0114D440001C
:1021C00007D2C00140F00040C84048BF6FF0004057
:1021D0007047C00140F00040C8404CBF4FF0004085
:1021E000404270470020704700424FF0004058BF07
:1021F000C043704738B50C0080B2FFF7C7FD05003B
:10220000A4B22000FFF7C2FD290000F00FF9064933
:10221000FFF70EFF054900F009F90549FFF708FF30
:10222000FFF7C6FF80B232BD00401C4600F07F457C
:102230000000A04180B50548018A0020FEF75DFD41
:102240000248418A0020FEF766FD01BD30020020F1
:1022500030B403220023002407252A0013E080B2B3
:102260000A2390FBF3F403FB1403314C1355012AAA
:1022700004D12F4BD35C0A332D4C135580B20A2363
:1022800090FBF3F0521E002A15D4042AE7DB89B232
:102290000A2391FBF3F403FB1413254C1355052A71
:1022A00004D1234BD35C0A33214C135589B20A2342
:1022B00091FBF3F1E6E7032200230CE01C481C5CD1
:1022C0001C4830F814001C4931F8131008181B4939
:1022D00021F813005B1C082BF0DB30BC704780B585
:1022E0001748006800281BD01548002101601548D8
:1022F0004FF48051016014480068104931F8101003
:102300001248FEF7CBFB10480068401C0E490860DD
:102310000D48006808280AD10B480021016006E03A
:102320000B484FF48051016005480121016001BD57
:1023300054020020682800085829000844020020A0
:1023400060020020140C01405C02002000300140BB
:10235000100C0140431A4FF000423EBF5340C01AD8
:10236000C91800BFD3095FEAD05C13EB400F34BF3C
:10237000B3EB410F40E07CEBD1530CD342EA012197
:1023800022D8D1EB402009D3400A28BF5FEA500190
:1023900040EBCC507047401A15D04002B0FA80F2A2
:1023A000521C9040400A4FEA3C23B3EB026384BFC7
:1023B00000EB730007E040F400001A16DB07C2F1DF
:1023C0000102D04018437047182BFCDC31FA03F2AD
:1023D00002FA03F3591A38BF42F00102D2EB40204F
:1023E0003CBF4000ACF1010C5FEACC5CC20572F16D
:1023F00000414CEB5020704713EB400F0FD24B00C5
:1024000009D0ACEBD153022B03DB4902172BDDDDE6
:1024100070479143401A4300D5D10020704713EB19
:10242000410FD0D36FF0000070470000FF2212EA86
:10243000D05C1DBF12EAD153944593422BE09C44DB
:10244000D30780EA01021A4043EA002043EA01214F
:10245000A1FB0030410038BF40007CF17F010BDB65
:10246000FE294ADA5B0842EAC15153EA006373F17C
:10247000004C51EB10207047D1F1080CDCF1200129
:102480002FDB5B0810FA01F10B4373F1004120FAD6
:102490000CF05041704794451CBF02EAD15393425F
:1024A00080EA010202F000421DD0400019D049002C
:1024B00017D05BB9634514D00902B1FA81F3994092
:1024C000BCEB030CC00140F00040C1E70002B0FAD1
:1024D00080FC10FA0CF0B3EB0C0CC90141F0004188
:1024E000B6E71000704740000AD0490008D010F14C
:1024F000807F94BF11F1807F02E042F0FF4070477F
:10250000D043704780B54448006850F0010042490C
:1025100008604248006842490840404908603E4817
:102520000068404908403C4908603B48006830F476
:102530008020394908603948006830F4FE00374986
:10254000086039485FF41F010160384800210160CC
:1025500000F001F801BD80B500F001F801BD82B0C6
:1025600000200190002000902B48006850F480303B
:10257000294908602848006810F40030009001984C
:10258000401C01900098002803D10198B0F5A06F7D
:10259000F0D121480068800302D50120009001E0BD
:1025A000002000900098012833D11C481B4909687D
:1025B00001601A48194909680160184817490968F3
:1025C00001601648006830F47C1014490860134814
:1025D000006850F49810114908600F48006850F0E6
:1025E00080700D4908600C4800688001FBD50B48DD
:1025F000006880088000094908600848006850F0B9
:102600000200064908600548006810F00C00082820
:10261000F9D102B0704700000010024004100240DF
:102620000000FFF8FFFFF6FE081002402C100240E9
:1026300000C1814001C0804101C0804100C1814092
:1026400001C0804100C1814000C1814001C0804182
:1026500001C0804100C1814000C1814001C0804172
:1026600000C1814001C0804101C0804100C1814062
:1026700001C0804100C1814000C1814001C0804152
:1026800000C1814001C0804101C0804100C1814042
:1026900000C1814001C0804101C0804100C1814032
:1026A00001C0804100C1814000C1814001C0804122
:1026B00001C0804100C1814000C1814001C0804112
:1026C00000C1814001C0804101C0804100C1814002
:1026D00000C1814001C0804101C0804100C18140F2
:1026E00001C0804100C1814000C1814001C08041E2
:1026F00000C1814001C0804101C0804100C18140D2
:1027000001C0804100C1814000C1814001C08041C1
:1027100001C0804100C1814000C1814001C08041B1
:1027200000C1814001C0804101C0804100C18140A1
:1027300000C0C101C30302C2C60607C705C5C40461
:10274000CC0C0DCD0FCFCE0E0ACACB0BC90908C8D1
:10275000D81819D91BDBDA1A1EDEDF1FDD1D1CDCC1
:1027600014D4D515D71716D6D21213D311D1D01031
:10277000F03031F133F3F23236F6F737F53534F421
:102780003CFCFD3DFF3F3EFEFA3A3BFB39F9F83891
:1027900028E8E929EB2B2AEAEE2E2FEF2DEDEC2C81
:1027A000E42425E527E7E62622E2E323E12120E0F1
:1027B000A06061A163A3A26266A6A767A56564A4E1
:1027C0006CACAD6DAF6F6EAEAA6A6BAB69A9A86851
:1027D00078B8B979BB7B7ABABE7E7FBF7DBDBC7C41
:1027E000B47475B577B7B67672B2B373B17170B0B1
:1027F00050909151935352929656579755959454A1
:102800009C5C5D9D5F9F9E5E5A9A9B5B9959589810
:10281000884849894B8B8A4A4E8E8F4F8D4D4C8C00
:102820004484854587474686824243834181804070
:1028300078787878787878302053542E534D464302
:10284000422E534878322076302E30312030382EC8
:1028500030382E32303133207777772E696E746DB1
:102860006173682E7275000000C000F900A400B00A
:1028700000990092008200F80080009000400079EA
:10288000002400300019001200020078000000103F
:1028900000FF000010B5074979441831064C7C440C
:1028A000163404E00A68081D511888470146A14201
:1028B000F8D110BD0800000028000000EFF4FFFF71
:1028C000580200001400002000000000ABF2FFFFDF
:1028D000140000006C010000000000200000000057
:1028E00080B5FEF735FB01BD80B501210248FEF73A
:1028F00071F8FFF7F4FC01BD0004004000F00BF894
:10290000002801D0FFF7C6FF0020C046C046FFF7F1
:10291000B8F900F002F80120704700F001B800009B
:102920000746384600F002F8FBE7000080B5C046D5
:10293000C046024A11001820ABBEFBE72600020089
:10294000C012000080250000004B000000E10000E4
:1029500000C201000084030010002000400080003D
:1029600001000200040008000148804701480047B8
:102970000525000879290008C046C046C046C04663
:10298000FFF7BCFFFFF7FEBFFFF7FEBFFFF7FEBF7D
:10299000FFF7FEBFFFF7FEBFFFF7FEBFFFF7FEBF6B
:1029A000FFF7FEBFFFF7FEBFFFF7FEBFFFF7FEBF5B
:1029B000FFF7FEBFFFF7FEBFFFF7FEBFFFF7FEBF4B
:1029C000FFF7FEBFFFF7FEBFFFF7FEBFFFF7FEBF3B
:1029D000FFF7FEBFFFF7FEBFFFF7FEBFFFF7FEBF2B
:1029E000FFF7FEBFFFF7FEBFFFF7FEBFFFF7FEBF1B
:1029F000FFF7FEBFFFF7FEBFFFF7FEBFFFF7FEBF0B
:102A0000FFF7FEBFFFF7FEBFFFF7FEBFFFF7FEBFFA
:102A1000FFF7FEBFFFF7FEBFFFF7FEBFFFF7FEBFEA
:102A2000FFF7FEBFFFF7FEBFFFF7FEBFFFF7FEBFDA
:102A3000FFF7FEBFFFF7FEBFFFF7FEBFFFF7FEBFCA
:102A40000000000001020304010203040607080954
:042A5000020406086E
:0838000001043C003C00000043
:083C000001043C003C0000003F
:04000005080029794D
:00000001FF
